{
  "_format": "hh-sol-artifact-1",
  "contractName": "Staking",
  "sourceName": "contracts/Staking.sol",
  "abi": [
    {
      "inputs": [
        {
          "internalType": "address",
          "name": "stakingToken",
          "type": "address"
        },
        {
          "internalType": "address",
          "name": "rewardsToken",
          "type": "address"
        }
      ],
      "stateMutability": "nonpayable",
      "type": "constructor"
    },
    {
      "inputs": [],
      "name": "NeedsMoreThanZero",
      "type": "error"
    },
    {
      "inputs": [],
      "name": "TransferFailed",
      "type": "error"
    },
    {
      "anonymous": false,
      "inputs": [
        {
          "indexed": true,
          "internalType": "address",
          "name": "user",
          "type": "address"
        },
        {
          "indexed": true,
          "internalType": "uint256",
          "name": "amount",
          "type": "uint256"
        }
      ],
      "name": "RewardsClaimed",
      "type": "event"
    },
    {
      "anonymous": false,
      "inputs": [
        {
          "indexed": true,
          "internalType": "address",
          "name": "user",
          "type": "address"
        },
        {
          "indexed": true,
          "internalType": "uint256",
          "name": "amount",
          "type": "uint256"
        }
      ],
      "name": "Staked",
      "type": "event"
    },
    {
      "anonymous": false,
      "inputs": [
        {
          "indexed": true,
          "internalType": "address",
          "name": "user",
          "type": "address"
        },
        {
          "indexed": true,
          "internalType": "uint256",
          "name": "amount",
          "type": "uint256"
        }
      ],
      "name": "withdrewStake",
      "type": "event"
    },
    {
      "inputs": [],
      "name": "REWARD_RATE",
      "outputs": [
        {
          "internalType": "uint256",
          "name": "",
          "type": "uint256"
        }
      ],
      "stateMutability": "view",
      "type": "function"
    },
    {
      "inputs": [],
      "name": "claimReward",
      "outputs": [],
      "stateMutability": "nonpayable",
      "type": "function"
    },
    {
      "inputs": [
        {
          "internalType": "address",
          "name": "account",
          "type": "address"
        }
      ],
      "name": "earned",
      "outputs": [
        {
          "internalType": "uint256",
          "name": "",
          "type": "uint256"
        }
      ],
      "stateMutability": "view",
      "type": "function"
    },
    {
      "inputs": [
        {
          "internalType": "address",
          "name": "account",
          "type": "address"
        }
      ],
      "name": "getStaked",
      "outputs": [
        {
          "internalType": "uint256",
          "name": "",
          "type": "uint256"
        }
      ],
      "stateMutability": "view",
      "type": "function"
    },
    {
      "inputs": [],
      "name": "rewardPerToken",
      "outputs": [
        {
          "internalType": "uint256",
          "name": "",
          "type": "uint256"
        }
      ],
      "stateMutability": "view",
      "type": "function"
    },
    {
      "inputs": [
        {
          "internalType": "address",
          "name": "",
          "type": "address"
        }
      ],
      "name": "s_balances",
      "outputs": [
        {
          "internalType": "uint256",
          "name": "",
          "type": "uint256"
        }
      ],
      "stateMutability": "view",
      "type": "function"
    },
    {
      "inputs": [],
      "name": "s_lastUpdateTime",
      "outputs": [
        {
          "internalType": "uint256",
          "name": "",
          "type": "uint256"
        }
      ],
      "stateMutability": "view",
      "type": "function"
    },
    {
      "inputs": [],
      "name": "s_rewardPerTokenStored",
      "outputs": [
        {
          "internalType": "uint256",
          "name": "",
          "type": "uint256"
        }
      ],
      "stateMutability": "view",
      "type": "function"
    },
    {
      "inputs": [
        {
          "internalType": "address",
          "name": "",
          "type": "address"
        }
      ],
      "name": "s_rewards",
      "outputs": [
        {
          "internalType": "uint256",
          "name": "",
          "type": "uint256"
        }
      ],
      "stateMutability": "view",
      "type": "function"
    },
    {
      "inputs": [],
      "name": "s_rewardsToken",
      "outputs": [
        {
          "internalType": "contract IERC20",
          "name": "",
          "type": "address"
        }
      ],
      "stateMutability": "view",
      "type": "function"
    },
    {
      "inputs": [],
      "name": "s_stakingToken",
      "outputs": [
        {
          "internalType": "contract IERC20",
          "name": "",
          "type": "address"
        }
      ],
      "stateMutability": "view",
      "type": "function"
    },
    {
      "inputs": [
        {
          "internalType": "address",
          "name": "",
          "type": "address"
        }
      ],
      "name": "s_userRewardPerTokenPaid",
      "outputs": [
        {
          "internalType": "uint256",
          "name": "",
          "type": "uint256"
        }
      ],
      "stateMutability": "view",
      "type": "function"
    },
    {
      "inputs": [
        {
          "internalType": "uint256",
          "name": "amount",
          "type": "uint256"
        }
      ],
      "name": "stake",
      "outputs": [],
      "stateMutability": "nonpayable",
      "type": "function"
    },
    {
      "inputs": [
        {
          "internalType": "uint256",
          "name": "amount",
          "type": "uint256"
        }
      ],
      "name": "withdraw",
      "outputs": [],
      "stateMutability": "nonpayable",
      "type": "function"
    }
  ],
  "bytecode": "0x608060405234801561001057600080fd5b506040516109cc3803806109cc83398101604081905261002f91610081565b6001600081905580546001600160a01b039384166001600160a01b031991821617909155600280549290931691161790556100b4565b80516001600160a01b038116811461007c57600080fd5b919050565b6000806040838503121561009457600080fd5b61009d83610065565b91506100ab60208401610065565b90509250929050565b610909806100c36000396000f3fe608060405234801561001057600080fd5b50600436106100e95760003560e01c8063a694fc3a1161008c578063b88a802f11610066578063b88a802f146101dd578063bea08151146101e5578063cd3daf9d14610205578063f245ace41461020d57600080fd5b8063a694fc3a14610197578063ab32eb69146101aa578063adca9b72146101ca57600080fd5b8063304ac91b116100c8578063304ac91b14610154578063399080ec1461015d5780635997bb37146101865780636aa0838f1461018e57600080fd5b80628cc262146100ee5780630bd21c56146101145780632e1a7d4d1461013f575b600080fd5b6101016100fc3660046107e2565b61022d565b6040519081526020015b60405180910390f35b600254610127906001600160a01b031681565b6040516001600160a01b03909116815260200161010b565b61015261014d366004610834565b6102aa565b005b61010160045481565b61010161016b3660046107e2565b6001600160a01b031660009081526008602052604090205490565b610101606481565b61010160035481565b6101526101a5366004610834565b610415565b6101016101b83660046107e2565b60086020526000908152604090205481565b600154610127906001600160a01b031681565b6101526105d5565b6101016101f33660046107e2565b60066020526000908152604090205481565b61010161070b565b61010161021b3660046107e2565b60056020526000908152604090205481565b6001600160a01b0381166000908152600660209081526040808320546005909252822054670de0b6b3a76400009061026361070b565b61026d91906108a6565b6001600160a01b0385166000908152600860205260409020546102909190610887565b61029a9190610865565b6102a4919061084d565b92915050565b6102b261076a565b336102bb61070b565b600455426003556102cb8161022d565b6001600160a01b0382166000908152600660209081526040808320939093556004546005909152918120919091556007805484929061030b9084906108a6565b9091555050336000908152600860205260408120805484929061032f9084906108a6565b9091555050604051829033907ffaf925a2782590ece15b73bcce340ae5a670caabcd87ae54e330c05ab6b92cf490600090a360015460405163a9059cbb60e01b8152336004820152602481018490526000916001600160a01b03169063a9059cbb90604401602060405180830381600087803b1580156103ae57600080fd5b505af11580156103c2573d6000803e3d6000fd5b505050506040513d601f19601f820116820180604052508101906103e69190610812565b905080610406576040516312171d8360e31b815260040160405180910390fd5b50506104126001600055565b50565b3361041e61070b565b6004554260035561042e8161022d565b6001600160a01b03821660009081526006602090815260408083209390935560045460059091529190205561046161076a565b8180610499576040517ff45911f000000000000000000000000000000000000000000000000000000000815260040160405180910390fd5b82600760008282546104ab919061084d565b909155505033600090815260086020526040812080548592906104cf90849061084d565b9091555050604051839033907f9e71bc8eea02a63969f509818f2dafb9254532904319f9dbda79b67bd34a5f3d90600090a36001546040517f23b872dd000000000000000000000000000000000000000000000000000000008152336004820152306024820152604481018590526000916001600160a01b0316906323b872dd90606401602060405180830381600087803b15801561056d57600080fd5b505af1158015610581573d6000803e3d6000fd5b505050506040513d601f19601f820116820180604052508101906105a59190610812565b9050806105c5576040516312171d8360e31b815260040160405180910390fd5b50506105d16001600055565b5050565b6105dd61076a565b336105e661070b565b600455426003556105f68161022d565b6001600160a01b038216600090815260066020818152604080842094909455600454600582528484205533808452919052828220805490839055925183927ffc30cddea38e2bf4d6ea7d3f9ed3b6ad7f176419f4963bd81318067a4aee73fe91a360025460405163a9059cbb60e01b8152336004820152602481018390526000916001600160a01b03169063a9059cbb90604401602060405180830381600087803b1580156106a457600080fd5b505af11580156106b8573d6000803e3d6000fd5b505050506040513d601f19601f820116820180604052508101906106dc9190610812565b9050806106fc576040516312171d8360e31b815260040160405180910390fd5b5050506107096001600055565b565b60006007546000141561071f575060045490565b60075460646003544261073291906108a6565b61073c9190610887565b61074e90670de0b6b3a7640000610887565b6107589190610865565b600454610765919061084d565b905090565b600260005414156107db576040517f08c379a000000000000000000000000000000000000000000000000000000000815260206004820152601f60248201527f5265656e7472616e637947756172643a207265656e7472616e742063616c6c00604482015260640160405180910390fd5b6002600055565b6000602082840312156107f457600080fd5b81356001600160a01b038116811461080b57600080fd5b9392505050565b60006020828403121561082457600080fd5b8151801515811461080b57600080fd5b60006020828403121561084657600080fd5b5035919050565b60008219821115610860576108606108bd565b500190565b60008261088257634e487b7160e01b600052601260045260246000fd5b500490565b60008160001904831182151516156108a1576108a16108bd565b500290565b6000828210156108b8576108b86108bd565b500390565b634e487b7160e01b600052601160045260246000fdfea2646970667358221220c60e3a24d177f7e12cde71bc9c5ab6c0609d86912ac4fbf781a692a52d714d0c64736f6c63430008060033",
  "linkReferences": {},
  "deployedLinkReferences": {}
}